:020000040000FA
:100000000C946C000C9494000C9494000C94940048
:100010000C9494000C9494000C9494000C94940010
:100020000C9494000C9494000C9494000C94940000
:100030000C9494000C9494000C9494000C949400F0
:100040000C9484020C9494000C9452020C942C0294
:100050000C9494000C9494000C9494000C949400D0
:100060000C9494000C94940005A84CCDB2D44EB9D5
:100070003836A9020C50B9918688083CA6AAAA2A4B
:10008000BE000000803F00000008000201000003E5
:100090000407000000000000000000000000250030
:1000A00028002B0000000000240027002A00040480
:1000B0000404040404040202020202020303030310
:1000C00003030102040810204080010204081020EC
:1000D0000102040810204B0411241FBECFEFD8E00A
:1000E000DEBFCDBF11E0A0E0B1E0E4E8FEE002C079
:1000F00005900D92A631B107D9F725E0A6E1B1E050
:1001000001C01D92A43AB207E1F710E0CCE6D0E0BE
:1001100004C02197FE010E943A07CB36D107C9F7E8
:100120000E94CE020C9440070C940000ECECF0E02E
:100130002491E8EBF0E08491882399F090E0880F17
:10014000991FFC01EC55FF4FA591B491FC01E656B7
:10015000FF4F859194918FB7F894EC91E22BEC933B
:100160008FBF0895E0E9F0E02491ECECF0E0949189
:10017000E8EBF0E0E491EE23C9F0222339F02330DC
:1001800001F1A8F4213019F1223029F1F0E0EE0F4D
:10019000FF1FE656FF4FA591B4912FB7F894EC914D
:1001A000811126C090959E239C932FBF08952730E0
:1001B000A9F02830C9F0243049F7209180002F7D24
:1001C00003C0209180002F7720938000DFCF24B5DB
:1001D0002F7724BDDBCF24B52F7DFBCF2091B0003E
:1001E0002F772093B000D2CF2091B0002F7DF9CF90
:1001F0009E2BDACFAF92BF92CF92DF92EF92FF9217
:100200000F931F93CF93DF936C017B018B01040F3E
:10021000151FEB015E01AE18BF08C017D10759F0DA
:100220006991D601ED91FC910190F081E02DC6011C
:100230000995892B79F7C501DF91CF911F910F9116
:10024000FF90EF90DF90CF90BF90AF900895FC01AA
:10025000538D448D252F30E0842F90E0821B930B2B
:10026000541710F0CF96089501970895FC01918DD1
:10027000828D981761F0A28DAE0FBF2FB11D5D96D4
:100280008C91928D9F5F9F73928F90E008958FEF76
:100290009FEF0895FC01918D828D981731F0828D2A
:1002A000E80FF11D858D90E008958FEF9FEF089581
:1002B000FC01918D228D892F90E0805C9F4F821BE5
:1002C00091098F73992708958FE191E00E94580159
:1002D00021E0892B09F420E0822F089580E090E04E
:1002E000892B29F00E94640181110C94000008956B
:1002F000FC01A48DA80FB92FB11DA35ABF4F2C919B
:10030000848D90E001968F739927848FA689B78991
:100310002C93A089B1898C91837080648C93938D88
:10032000848D981306C00288F389E02D80818F7D2B
:1003300080830895EF92FF920F931F93CF93DF93E3
:10034000EC0181E0888F9B8D8C8D98131AC0E88911
:10035000F989808185FF15C09FB7F894EE89FF89E0
:100360006083E889F98980818370806480839FBF7E
:1003700081E090E0DF91CF911F910F91FF90EF907E
:100380000895F62E0B8D10E00F5F1F4F0F7311278E
:10039000E02E8C8D8E110CC00FB607FCFACFE889C9
:1003A000F989808185FFF5CFCE010E947801F1CFD8
:1003B000EB8DEC0FFD2FF11DE35AFF4FF0829FB73D
:1003C000F8940B8FEA89FB8980818062CFCFCF932D
:1003D000DF93EC01888D8823B9F0AA89BB89E8896D
:1003E000F9898C9185FD03C0808186FD0DC00FB613
:1003F00007FCF7CF8C9185FFF2CF808185FFEDCF91
:10040000CE010E947801E9CFDF91CF9108953FB7E7
:10041000F89480911B0190911C01A0911D01B09155
:100420001E0126B5A89B05C02F3F19F00196A11DFE
:10043000B11D3FBFBA2FA92F982F8827BC01CD012E
:10044000620F711D811D911D42E0660F771F881F8D
:10045000991F4A95D1F708951F920F920FB60F92E8
:1004600011242F933F934F935F936F937F938F93B9
:100470009F93AF93BF93EF93FF938FE191E00E941F
:100480007801FF91EF91BF91AF919F918F917F91F3
:100490006F915F914F913F912F910F900FBE0F90F1
:1004A0001F9018951F920F920FB60F9211242F9341
:1004B0008F939F93EF93FF93E0912F01F091300181
:1004C0008081E0913501F091360182FD1BC0908161
:1004D000809138018F5F8F7320913901821741F02D
:1004E000E0913801F0E0E15EFE4F958F8093380196
:1004F000FF91EF919F918F912F910F900FBE0F90D1
:100500001F9018958081F4CF1F920F920FB60F9213
:1005100011242F933F938F939F93AF93BF93809119
:10052000170190911801A0911901B0911A01309111
:10053000160123E0230F2D3758F50196A11DB11D9B
:10054000209316018093170190931801A09319012D
:10055000B0931A0180911B0190911C01A0911D0183
:10056000B0911E010196A11DB11D80931B019093B6
:100570001C01A0931D01B0931E01BF91AF919F91EB
:100580008F913F912F910F900FBE0F901F90189554
:1005900026E8230F0296A11DB11DD2CFCF93DF9382
:1005A000CDB7DEB7A1970FB6F894DEBF0FBECDBFB3
:1005B000789484B5826084BD84B5816084BD85B53E
:1005C000826085BD85B5816085BD80916E0081604A
:1005D00080936E00109281008091810082608093F0
:1005E00081008091810081608093810080918000F2
:1005F0008160809380008091B10084608093B1001D
:100600008091B00081608093B00080917A00846016
:1006100080937A0080917A00826080937A00809142
:100620007A00816080937A0080917A00806880935C
:100630007A001092C100E0912F01F091300182E028
:100640008083E0912B01F0912C011082E0912D012B
:10065000F0912E0187E6808310923701E0913301FB
:10066000F091340186E08083E0913101F091320114
:10067000808180618083E0913101F091320180813D
:1006800088608083E0913101F0913201808180683F
:100690008083E0913101F091320180818F7D8083F0
:1006A0000E9496003CEBE32E31E0F32E10E000E0D8
:1006B000B801012E000C880B990B0E948F0520E0D9
:1006C00030E04AEF53E40E94E50420E030E444ECDB
:1006D00055E40E941B060E94880620E030E040E8B6
:1006E0005FE30E94790420E030E04EEF52E40E9484
:1006F0001B060E945705F701619371937F010F5FFD
:100700001F4F043FF1E01F0799F62CEB222E21E04A
:10071000322EC12CD12C7601F101019111911F01D2
:100720000E9496000115110541F580E00E94B2007B
:100730000E9407024B015C0192E0492E512C612C72
:10074000712C0E940702681979098A099B09683E81
:10075000734081059105A8F3F8EE8F0EF3E09F1E1C
:10076000A11CB11C4A9445284628472809F44CC0CE
:10077000412C512C32014394E4CF0F3F110511F469
:1007800081E0D4CFE0E9F0E08491833019F140F4C6
:100790008130B1F08230C9F0003811058CF7C5CF37
:1007A000873011F1883041F18430B1F780918000B9
:1007B00080628093800010938B0000938A00B8CFF2
:1007C00084B5806884BD07BDB3CF84B5806284BD25
:1007D00008BDAECF80918000806880938000109328
:1007E000890000938800A4CF8091B0008068809336
:1007F000B0000093B3009CCF8091B00080628093E2
:10080000B0000093B40094CF19A2A70196018E0105
:100810000F5D1F4FCA01B9012AE030E040E050E00F
:100820000E941807605DF80162938F012115310560
:100830004105510579F7309761F001900020E9F703
:100840003197AF01401B510BB8018FE191E00E943D
:10085000FA0042E050E062E171E08FE191E00E9435
:10086000FA00FFEFCF1ADF0AEF0AFF0A24EFC216E1
:1008700021E0D206E104F10409F04ECF80E090E0DF
:10088000892B09F442CF0E946401882309F43DCFEB
:100890000E9400003ACFEFE1F1E01382128288EE6D
:1008A00093E0A0E0B0E084839583A683B78384E0DF
:1008B00091E09183808385EC90E09587848784EC38
:1008C00090E09787868780EC90E0918B808B81EC1D
:1008D00090E0938B828B82EC90E0958B848B86ECFE
:1008E00090E0978B868B118E128E138E148E089546
:1008F0005058BB27AA270E9490040C94E1050E943F
:10090000D30538F00E94DA0520F039F49F3F19F43E
:1009100026F40C94D0050EF4E095E7FB0C94CA0580
:10092000E92F0E94F20558F3BA176207730784078C
:10093000950720F079F4A6F50C9414060EF4E095D2
:100940000B2EBA2FA02D0B01B90190010C01CA0189
:10095000A0011124FF27591B99F0593F50F4503E34
:1009600068F11A16F040A22F232F342F4427585F26
:10097000F3CF469537952795A795F0405395C9F73E
:100980007EF41F16BA0B620B730B840BBAF09150F6
:10099000A1F0FF0FBB1F661F771F881FC2F70EC095
:1009A000BA0F621F731F841F48F487957795679568
:1009B000B795F7959E3F08F0B0CF9395880F08F054
:1009C0009927EE0F9795879508950E94F9040C9446
:1009D000E1050E94DA0558F00E94D30540F029F4A1
:1009E0005F3F29F00C94CA0551110C9415060C9424
:1009F000D0050E94F20568F39923B1F3552391F3D2
:100A0000951B550BBB27AA2762177307840738F07D
:100A10009F5F5F4F220F331F441FAA1FA9F335D0DA
:100A20000E2E3AF0E0E832D091505040E695001C8E
:100A3000CAF72BD0FE2F29D0660F771F881FBB1F48
:100A4000261737074807AB07B0E809F0BB0B802D26
:100A5000BF01FF2793585F4F3AF09E3F510578F052
:100A60000C94CA050C9415065F3FE4F3983ED4F34A
:100A7000869577956795B795F7959F5FC9F7880F26
:100A8000911D9695879597F90895E1E0660F771F78
:100A9000881FBB1F621773078407BA0720F0621B09
:100AA000730B840BBA0BEE1F88F7E09508950E9434
:100AB0005E056894B1110C94150608950E94FA051C
:100AC00088F09F5798F0B92F9927B751B0F0E1F00F
:100AD000660F771F881F991F1AF0BA95C9F714C0BF
:100AE000B13091F00E941406B1E008950C94140600
:100AF000672F782F8827B85F39F0B93FCCF38695F8
:100B000077956795B395D9F73EF490958095709554
:100B100061957F4F8F4F9F4F0895E89409C097FBD1
:100B20003EF490958095709561957F4F8F4F9F4FC4
:100B30009923A9F0F92F96E9BB279395F695879508
:100B400077956795B795F111F8CFFAF4BB0F11F4CB
:100B500060FF1BC06F5F7F4F8F4F9F4F16C0882372
:100B600011F096E911C0772321F09EE8872F762FA8
:100B700005C0662371F096E8862F70E060E02AF0E9
:100B80009A95660F771F881FDAF7880F96958795D5
:100B900097F9089597F99F6780E870E060E00895FD
:100BA0009FEF80EC089500240A9416161706180685
:100BB0000906089500240A94121613061406050661
:100BC0000895092E0394000C11F4882352F0BB0FF2
:100BD00040F4BF2B11F460FF04C06F5F7F4F8F4F55
:100BE0009F4F089557FD9058440F551F59F05F3F90
:100BF00071F04795880F97FB991F61F09F3F79F03F
:100C000087950895121613061406551FF2CF4695C0
:100C1000F1DF08C0161617061806991FF1CF869542
:100C20007105610508940895E894BB276627772726
:100C3000CB0197F908950E942E060C94E1050E94BD
:100C4000D30538F00E94DA0520F0952311F00C94BA
:100C5000CA050C94D00511240C9415060E94F205C7
:100C600070F3959FC1F3950F50E0551F629FF001FF
:100C7000729FBB27F00DB11D639FAA27F00DB11D18
:100C8000AA1F649F6627B00DA11D661F829F2227A1
:100C9000B00DA11D621F739FB00DA11D621F839F28
:100CA000A00D611D221F749F3327A00D611D231FFE
:100CB000849F600D211D822F762F6A2F11249F574C
:100CC00050409AF0F1F088234AF0EE0FFF1FBB1F4F
:100CD000661F771F881F91505040A9F79E3F51050E
:100CE00080F00C94CA050C9415065F3FE4F3983E1F
:100CF000D4F3869577956795B795F795E7959F5FB8
:100D0000C1F7FE2B880F911D9695879597F9089549
:100D10009F930E9492060F9007FCEE5F0C94BB0617
:100D20000C94D0050E94FA05D8F3E894E0E0BB27C4
:100D30009F57F0F02AED3FE049EC06C0EE0FBB0FE5
:100D4000661F771F881F28F0B23A6207730784076F
:100D500028F0B25A620B730B840BE3959A9572F7E5
:100D6000803830F49A95BB0F661F771F881FD2F723
:100D700090480C94D106EF93E0FF07C0A2EA2AED59
:100D80003FE049EC5FEB0E9490040E94E1050F9068
:100D9000039401FC9058E8E6F0E00C94DD069F3FD8
:100DA00031F0915020F4879577956795B795880F26
:100DB000911D9695879597F908959F938F937F93AB
:100DC0006F93FF93EF939B01AC010E941B06EF9181
:100DD000FF910E94F1062F913F914F915F910C94EA
:100DE0001B06DF93CF931F930F93FF92EF92DF9237
:100DF0007B018C01689406C0DA2EEF010E942E065A
:100E0000FE01E894A5912591359145915591A6F360
:100E1000EF010E949004FE019701A801DA9469F79E
:100E2000DF90EF90FF900F911F91CF91DF91089588
:100E3000A1E21A2EAA1BBB1BFD010DC0AA1FBB1FDE
:100E4000EE1FFF1FA217B307E407F50720F0A21B50
:100E5000B30BE40BF50B661F771F881F991F1A94BD
:100E600069F760957095809590959B01AC01BD01E7
:100E7000CF010895EE0FFF1F0590F491E02D099426
:100E8000F894FFCF000000009A01FA002701E70163
:0A0E9000580136014A010D0A000066
:107E0000112484B714BE81FFF0D085E080938100F7
:107E100082E08093C00088E18093C10086E0809377
:107E2000C20080E18093C4008EE0C9D0259A86E02C
:107E300020E33CEF91E0309385002093840096BBD3
:107E4000B09BFECF1D9AA8958150A9F7CC24DD24C4
:107E500088248394B5E0AB2EA1E19A2EF3E0BF2EE7
:107E6000A2D0813461F49FD0082FAFD0023811F036
:107E7000013811F484E001C083E08DD089C08234E0
:107E800011F484E103C0853419F485E0A6D080C0E4
:107E9000853579F488D0E82EFF2485D0082F10E0AE
:107EA000102F00270E291F29000F111F8ED06801E7
:107EB0006FC0863521F484E090D080E0DECF843638
:107EC00009F040C070D06FD0082F6DD080E0C81688
:107ED00080E7D80618F4F601B7BEE895C0E0D1E017
:107EE00062D089930C17E1F7F0E0CF16F0E7DF06D8
:107EF00018F0F601B7BEE89568D007B600FCFDCFD4
:107F0000A601A0E0B1E02C9130E011968C91119780
:107F100090E0982F8827822B932B1296FA010C0160
:107F200087BEE89511244E5F5F4FF1E0A038BF0790
:107F300051F7F601A7BEE89507B600FCFDCF97BE46
:107F4000E89526C08437B1F42ED02DD0F82E2BD052
:107F50003CD0F601EF2C8F010F5F1F4F84911BD097
:107F6000EA94F801C1F70894C11CD11CFA94CF0C13
:107F7000D11C0EC0853739F428D08EE10CD085E9AC
:107F80000AD08FE07ACF813511F488E018D01DD067
:107F900080E101D065CF982F8091C00085FFFCCF94
:107FA0009093C60008958091C00087FFFCCF809118
:107FB000C00084FD01C0A8958091C6000895E0E648
:107FC000F0E098E1908380830895EDDF803219F02E
:107FD00088E0F5DFFFCF84E1DECF1F93182FE3DFCA
:107FE0001150E9F7F2DF1F91089580E0E8DFEE27F6
:047FF000FF270994CA
:027FFE00040479
:00000001FF
